S016000041544D656761333238502D7470342E73726563CD
S11300000C9434000C9451000C9451000C94510045
S11300100C9451000C9451000C9451000C949401D4
S11300200C9451000C94A3010C9451000C945100B5
S11300300C9451000C9451000C9451000C945100F8
S11300400C9451000C9451000C9446020C948202BE
S11300500C9451000C9451000C9451000C945100D8
S11300600C9451000C94510011241FBECFEFD8E022
S1130070DEBFCDBF12E0A0E0B1E0EEEDF5E002C0DE
S113008005900D92A43DB107D9F723E0A4EDB2E0A9
S113009001C01D92A532B207E1F70E9438010C9409
S11300A0ED020C94000087B1877F87B9EEE7F0E09A
S11300B080818860808310927B00EAE7F0E0808191
S11300C083688083ECE7F0E0808183668083089511
S11300D0EAE7F0E080818064808380917A0084FF85
S11300E0FCCFEAE7F0E08081806180838091790031
S11300F08093D50281E08093D40208958093D40242
S113010008958091D40208958091D502089584B110
S1130110826084B984B1846084B984B1886084B90C
S113012084B1806284B90895E6EDF2E080E008C00D
S1130130880F982F990F990F890F820F805331964A
S113014020812111F5CF089583EE91E00E94E00112
S1130150E6EDF2E080E390E39183808380E38283A1
S11301600E94BF028823E1F380E00E94C20286ED70
S113017092E00E9417020E9494008093220380E080
S11301800E94C202E6EDF2E080E390E39183808373
S113019080E382838CEA91E00E94E0010E94BF0226
S11301A08823E1F386ED92E00E9417020E949400F6
S11301B08093200380E00E94C202E6EDF2E080E337
S11301C090E39183808380E3828385E791E00E94BA
S11301D0E0010E94BF028823E1F386ED92E00E94D1
S11301E017020E94940080931F0380E00E94C202C1
S11301F0E6EDF2E080E390E39183808380E3828301
S113020080E091E00E94E0010895869FC0011124DE
S113021064E670E00E94C502862F08950E9468007B
S11302200E948100882319F10E94840024E6829FA1
S1130230C00111249093210380E00E947E0060910C
S11302402103809122030E9405010E947E01609196
S11302502103809120030E9405010E948201609184
S1130260210380911F030E9405010E948B010895C0
S11302700E9487000E945D010E946C0187E60E9433
S1130280B2010E94BA010E94C0010E94CC010E94E6
S1130290D2010E94530078940E9439020E94A40063
S11302A00E94BF02882331F080E00E94C2020E94B3
S11302B0A400F6CF0E940E01F3CF10928500109295
S11302C08400E0E8F0E08081816A8083E1E8F0E086
S11302D080818A60808308951092B200E0EBF0E0A0
S11302E0808183688083E1EBF0E080818260808399
S11302F0E0E7F0E0808183608083089580958093B7
S1130300B30008952FEF30E0281B310930938B00A0
S113031020938A0008952FEF30E0281B3109309391
S113032089002093880008951F920F920FB60F92B0
S113033011248F9385B18F7D85B98F910F900FBE56
S11303400F901F9018951F920F920FB60F921124C1
S11303508F9385B1806285B98F910F900FBE0F90F6
S11303601F9018951092C10096E09093C20080935C
S1130370C4000895E1ECF0E08081886080830895F2
S1130380E1ECF0E08081806280830895E1ECF0E0AC
S113039080818F7D80830895E1ECF0E0808180612D
S11303A080830895E1ECF0E0808180688083089583
S11303B08091C00085FFFCCF08958093C600089506
S11303C0EF92FF920F931F93CF937C01C0E007C07D
S11303D00E94D801F80180810E94DD01CF5F87016E
S11303E00C0F111DF80180818111F2CFCF911F9163
S11303F00F91FF90EF900895DC0120911B039091E1
S11304001A03291770F4E0911B03F0E0E752FD4F43
S113041080818C9380911B038F5F80931B0381E009
S1130420089510921B0310921A0380E008950F930D
S11304301F93CF93DF931F92CDB7DEB78C01198240
S1130440CE0101960E94FC01882329F08981F801DC
S113045081938F0102C08AE0898389818A3081F780
S1130460F801108281E00F90DF91CF911F910F91DD
S1130470089589E292E00E94E00182E492E00E9401
S1130480E0018CE792E00E94E00108951F920F9230
S11304900FB60F9211248F93EF93FF93E0911A03F9
S11304A0F0E08091C600E752FD4F8083E0911A038B
S11304B0F0E0E752FD4F80818D3051F4E0911A0352
S11304C0F0E0E752FD4F108281E08093190312C0DF
S11304D080911A038F3149F410921A03E0911A03A0
S11304E0F0E0E752FD4F81E6808380911A038F5F2D
S11304F080931A03FF91EF918F910F900FBE0F908D
S11305001F9018951F920F920FB60F9211242F93DC
S11305103F934F935F936F937F938F939F93AF9387
S1130520BF93EF93FF9390911D0380911C03981741
S113053099F0E0911D03F0E0E750FD4F8081809336
S1130540C60080911D0390E001966FE170E00E9467
S1130550C50280931D0302C00E94C601FF91EF9162
S1130560BF91AF919F918F917F916F915F914F91C7
S11305703F912F910F900FBE0F901F90189580916F
S11305801903089580931903089597FB072E16F411
S1130590009407D077FD09D00E94D90207FC05D04A
S11305A03EF4909581959F4F0895709561957F4F86
S11305B00895AA1BBB1B51E107C0AA1FBB1FA617A6
S11305C0B70710F0A61BB70B881F991F5A95A9F7F8
S11105D080959095BC01CD010895F894FFCF5D
S11305DE536520656E63656E6465726120656C207B
S11305EE4C454420636F6E20656C20636F6C6F7294
S11305FE20636F72726573706F6E6469656E746575
S113060E2061206C6F732076616C6F726573206944
S113061E6E6772657361646F732E20506172612010
S113062E63616D6269617220656C20636F6C6F72B9
S113063E2C2070726573696F6E6520454E54455259
S113064E2E200A0D00496E677265736520656C2055
S113065E76616C6F72206465206C6120636F6D70BF
S113066E6F6E656E746520422028656E7472652007
S113067E3020792032353529200A0D00496E6772F3
S113068E65736520656C2076616C6F7220646520DD
S113069E6C6120636F6D706F6E656E74652047209C
S11306AE28656E7472652030207920323535292004
S11306BE0A0D005061726120636F6D656E7A61720E
S11306CE2C20696E677265736520656C2076616C8B
S11306DE6F72206465206C6120636F6D706F6E6540
S11306EE6E746520522028656E74726520302079F0
S11306FE2032353529200A0D00436F6E74726F6CEB
S113070E20646520756E204C454420524742200AD1
S113071E0D005061726120656E63656E64657220B2
S113072E656C204C45442C20696E67726573652098
S113073E6C6F7320636F6D706F6E656E746573206E
S113074E522C204720792042200A0D00536520693F
S113075E6E67726573616E206465206120756E6FBD
S113076E2061206C612076657A2E20416C20696EA2
S113077E67726573617220756E2076616C6F722C70
S113078E2070726573696F6E617220454E544552C6
S113079E207061726120636F6E74696E7561722E62
S10707AE200A0D000C
S9030000FC
